:020000042000DA
:10000000301C00203101002039010020D9000020DF
:1000100000000000000000000000000000000000E0
:100020000000000000000000000000003D01002072
:1000300000000000000000003F010020AD03002090
:100040004301002043010020430100204301002020
:100050004301002043010020430100204301002010
:100060004301002043010020430100204301002000
:1000700043010020430100204301002043010020F0
:1000800043010020430100204301002043010020E0
:1000900043010020430100204301002043010020D0
:1000A00043010020430100204301002043010020C0
:1000B00043010020430100204301002043010020B0
:1000C0000448854600F09CF800480047A90B002032
:1000D000C046C046301C00207046400702D4EFF3F3
:1000E000088001E0EFF3098081690B88094A934297
:1000F00002D104318161704704207146084202D068
:10010000EFF3098001E0EFF308807146024A1047DF
:10011000FEE70000ABBE000069020020ABBE01E0BC
:1001200000207047002A00D01060012070470000B6
:100130000448804704480047FEE7FEE7FEE7FEE785
:10014000FEE7FEE7AF030020C100002030B50B46FC
:10015000014600202022012409E00D46D5409D42A1
:1001600005D31D469540491B254695404019154627
:10017000521E002DF1DC30BD70B50024254600284C
:1001800001DA01244042002901DA01254942FFF742
:10019000DDFFAC4200D04042002C00D0494270BD8F
:1001A000F0B51FB40646002082B0054640240191F8
:1001B00000901BE0019922460F46304600F042F8BD
:1001C000049A059B801A994110D31046194622467D
:1001D00000F028F8361A8F410197224601200021AD
:1001E000009F00F01FF838184D4100902046641E13
:1001F0000028DFDC019B00982946324607B0F0BD9D
:10020000064C0125064E05E0E36807CC2B430C3C69
:1002100098471034B442F7D3FFF756FF141100206B
:100220003411002010B5202A04DB0146203A914009
:10023000002010BD914020239C1A0346E34019433F
:10024000904010BD10B5202A04DB0846203AD0406B
:10025000002110BD0B46D340D0402024A21A91406B
:100260000843194610BD0000044604A000F0A0F8A1
:10027000204600F079FD00BFFEE70000496E2048EF
:10028000617264204661756C742048616E646C65AF
:10029000720A000010B5002819DA1A4A03071B0F6A
:1002A000083B9B089B00D2588307DC0EFF23A3402A
:1002B0009A438B071B0E8407E40EA3401A43114B8D
:1002C0000407240F083CA408A4001A5118E00E4AA1
:1002D00003231B02D21883089B00D2588307DC0E2D
:1002E000FF23A3409A438B071B0E8407E40EA34011
:1002F0001A43054B032424021B198408A4001A5135
:1003000010BD00001CED00E000E100E010B5044667
:10031000184802780078401C164B18701648845410
:1003200000211A461278815418460078401C102883
:1003300003D20A2C01D0002C19D100220E4904202E
:10034000FFF7ECFE002803D000200A49087010BD1A
:10035000002304E00849C85C00F010F85B1C054865
:1003600000788342F6DB00200249087000BF00BF1E
:10037000EDE70000141800202018002000BF0A49F3
:100380004968C907C90F0029F9D1074908600A2837
:1003900009D100BF04494968C907C90F0029F9D12B
:1003A0000D21014A1160704700600040704770479E
:1003B0000FB410B503A9044B044A029800F018F8D2
:1003C00010BC08BC04B018473D0B00200C180020DE
:1003D00002E008C8121F08C1002AFAD1704770470E
:1003E000002001E001C1121F002AFBD1704700006C
:1003F000FFB591B00F460546002606E025280AD035
:10040000149A139990476D1C761C28780028F5D112
:10041000304615B0F0BD002400940121F34A029447
:1004200000E004436D1C2B780846203B98401042A6
:10043000F7D128782A280ED00222287801463039B0
:10044000092915D800990A23594330394018144313
:100450006D1C0090F1E701CF0090002805DA012023
:1004600040030443009840420090022004436D1C66
:1004700028782E2815D10420044368786D1C2A287A
:100480000AD101CF6D1C02900BE002990A22514360
:10049000303940186D1C02902878014630390929FE
:1004A000F3D928786C2810D006DC4C281AD068289C
:1004B0000ED06A2817D104E0742813D07A2812D1FC
:1004C00010E00120400504430CE00121090501E092
:1004D000032109050C436978814203D101200005FD
:1004E00024186D1C6D1C28786E281ED00CDC632827
:1004F00031D004DC00288BD0582811D1B2E0642818
:100500007BD069280CD178E073282DD004DC6F28CB
:1005100070D0702804D1A7E075286CD078286BD0F3
:10052000149A13999047761C62E06002400F0228EB
:1005300007D003280AD0042838680AD006603F1D77
:1005400056E03868F11706604160F8E738680680C1
:10055000F5E70670F3E738786946087400204874B8
:1005600004A80390012003E0386803900020C043F2
:100570003F1D61070FD5002101E00199491C029A36
:100580000191914213DA8142F7DB019A0399895C68
:100590000029F2D10BE0002101E00199491C0191F1
:1005A0008142FADB019A0399895C0029F5D101990E
:1005B0000098139A401A00902146149B00F03CF9D1
:1005C00001998019461807E0039803990078491C9F
:1005D0000391149A139990470198401E0190401C72
:1005E000F2D12146149B139A009800F015F9861950
:1005F0006D1C0AE741E033E034E00A20002104905A
:1006000005916002410F022905D001CFC21794461F
:10061000032905D007E0FF1DFF08FF0003CF06E018
:1006200000B2C2179446042902D140B2C1178C46C9
:1006300000226146944506DA0A4600214042914173
:100640008C462D2102E0210504D52B216A46117626
:10065000012103E0E10701D02021F7E7019155E0F6
:100660000A200BE0102009E0102004900021042053
:10067000044308200591029003E008200021059121
:1006800004906002410F022905D001CF0022944658
:10069000032906D006E0FF1DFF08FF0003CF8C46AC
:1006A00003E080B2042900D1C0B2002101912107EA
:1006B0002CD529780391702906D0049A1021059B26
:1006C0004A401A4305D00EE040216A4611760121C6
:1006D00008E06146014306D030216A46117603994D
:1006E000517602210191049A0821059B4A401A4340
:1006F0000CD16146014301D1610707D530216A461B
:100700001176012101910299491E029129785829F7
:1007100004D037A103910FA90F910DE039A1F9E79A
:100720006146059B049AFFF73BFD039B8C469B5C4F
:100730000F9A521E0F92137061460143F0D10F9829
:1007400007A9081A20300390600704D5012000048F
:100750008443029801E0012002900399884201DD60
:10076000401A00E0002041180290019809180098F2
:10077000401A0090E00306D42146149B139A009877
:1007800000F05AF886190020049008E006A9085CD9
:10079000149A139990470498401C761C0490019970
:1007A0008842F3DBE0030CD52146149B139A009892
:1007B00000F042F8861904E0149A3020139990470B
:1007C000761C0299481E02900029F5DC08E00F987B
:1007D0000F990078491C0F91149A13999047761C31
:1007E0000399481E03900029F1DCFAE6092801006C
:1007F0003031323334353637383961626364656697
:100800000000000030313233343536373839414258
:100810004344454600000000F8B5044600251E4646
:100820001746880404D405E039462020B0476D1CE3
:10083000641EF9D52846F8BDFFB50446002581B0F1
:100840001E46C80301D5302700E02027880404D5C0
:1008500005E038460399B0476D1C641EF9D528465B
:1008600005B0F0BD0021174A8218002A0CD0164BA3
:10087000D218002A05D05B00D218002A03D100BF8D
:1008800004E0022102E000BF032100BF00BF0F4AC5
:100890001268920892008B079B0F1A430B4B1A6049
:1008A0001A46126901239B049A43D218074B1A6116
:1008B0001A4612690123DB049A43D218034B1A61CA
:1008C0007047000000E548FF00F7C2FF004001400C
:1008D000002105E0002200E0521C072AFCDB491C35
:1008E0008142F7DB7047002105E0002200E0521C46
:1008F000072AFCDB491C8142F7DB704738B5054607
:100900000C460123082229461846009400F05AF8A4
:10091000002800D138BD0123FF2281322946002062
:10092000009400F04FF8002800D1F3E70120F1E730
:1009300000B511200B4948600520FFF7D4FF312096
:10094000084948600848FFF7CEFF21200549486064
:100950000520FFF7C8FF0020024948600120FFF78B
:10096000C2FF00BD00500140204E000010B5C2077C
:10097000520E24231A434307DB0F1A43C3080224F1
:1009800023401A430309102423401A43430908242F
:1009900023401A431146E204094B5A6000225A6070
:1009A00024225A601A465160E2040A435A601A46E9
:1009B000516024225A6000225A6000BF10BD00001E
:1009C00000500140FFB587B00746109C00200490FE
:1009D000012003901F20029000200190042C03D1DD
:1009E0000120049002200390052C01D102200390E5
:1009F0000027049D86E0F80129020843401C0221DB
:100A000008430A99002901D1012100E0002108438F
:100A100042494860022C01D0032C0BD1E807C00FDB
:100A2000E107C90F884202D10020019002E00020B6
:100A3000C0430190002661E0012C08D1E906C90EEF
:100A400002983040814202D10020059010E0022C33
:100A500001D0032C0AD1F007C00F002802D1019861
:100A6000059005E00198C043059001E008980590C5
:100A70002B480068012800D100E00020012F01D19F
:100A8000012100E000210840002D01D1012100E0FA
:100A900000210840002E01D1012100E00021084082
:100AA000002801D01F4805901C48406801214904D6
:100AB00008431A494860084640680421084317491A
:100AC00048600A98002800D000BF1448406806908B
:100AD0000599069888420AD0059800903246294622
:100AE00011A0069BFFF764FC00200BB0F0BD0B4883
:100AF00040680421884309494860761C202E9BDB0E
:100B000003982D180998854200DA74E700200349FC
:100B100048600120FFF7E7FE0120E6E700500140B2
:100B200018180020AAAA55550A783A257820793A4B
:100B300025782025782025780A00000070B5044625
:100B40000D462046FFF7E2FB204670BD14480068C2
:100B5000012189020840884219D1012011494870B9
:100B600008464078097888420DD10E488078401CAC
:100B70000C4988700846807814280BDB00208870A8
:100B80000120C87006E000200649887002E00020BD
:100B900004494870034840780249087070470000D3
:100BA000000001401C180020012400F031F9E12070
:100BB000400200F055FA3FA0FFF7FAFB3EA0FFF716
:100BC000F7FB49A0FFF7F4FB3BA0FFF7F1FB52A2B4
:100BD00054A157A0FFF7ECFB5E480069610208438F
:100BE0005C4908615C4800680321890488435A49CC
:100BF0000860584840684915884356494860084687
:100C00000069E103084353490861534800688000C4
:100C1000800889034018504908604E484068E10345
:100C200088434C49486008464069091508434949CA
:100C3000486149480068032109058843464908601E
:100C400044484068091588434249486001204349A7
:100C5000086000F093F9002802D1002400F02EFA79
:100C600000F030F9002802D1002400F027FA00F04B
:100C700055F9002802D1002400F020FA00F0AEF966
:100C8000002802D1002400F019FA012C03D1FA2027
:100C90003349086002E0F02031490860EE20314914
:100CA00008602C4840680121C9030843294948606D
:100CB00000BFFEE70A0000002B2D2D2D2D2D2D2D20
:100CC0002D2D2D2D2D2D2D2D2D2D2D2D2D2D2D2D54
:100CD0002D2D2D2D2D2D2D2D2D2D2D2D2D2D2D2D44
:100CE0002D2D2D2D2D2B0A007C202020435350200C
:100CF000383835322053616D706C6520436F646500
:100D000020202020202020202020202020202020E3
:100D100020202020207C0A0031333A34353A3439FF
:100D2000000000004175672031362032303231003A
:100D30000A435053383835322065466C6173682059
:100D400043503220544553542C2025732C25730ACC
:100D500000000000000001408040014000500140C0
:100D6000081800200418002010B5044610A02168BF
:100D7000FFF71EFB11A06168FFF71AFB12A0A16824
:100D8000FFF716FB13A0E168FFF712FB14A021691F
:100D9000FFF70EFB15A06169FFF70AFB16A0A1691A
:100DA000FFF706FB17A0E169FFF702FB10BD00008B
:100DB000723020203D20307825780A0072312020C2
:100DC0003D20307825780A00723220203D2030788E
:100DD00025780A00723320203D20307825780A00DB
:100DE000723132203D20307825780A006C72202044
:100DF0003D20307825780A00706320203D2030782F
:100E000025780A00707372203D20307825780A001A
:100E100070B5214D21482249C86122480068224905
:100E200008432049086048051E49803908600020B1
:100E30001E49C860012088601D481E494860012085
:100E40001A4948602846FFF70DFD7D21C900284654
:100E5000FFF77CF904461848844200D90EE02002CE
:100E6000000A401E154948610321081FFFF712FAC6
:100E70000020124988610720086100BF0020C0439C
:100E8000C206D20E012191400D4A116000BF01211E
:100E9000FFF700FA70BD000000366E01501200002E
:100EA00040E7004000F100402041110000400140B7
:100EB0001FE97FF700F00040FFFFFF0000E000E0C7
:100EC00000E100E010B50520084908600848016805
:100ED00008A0FFF76DFA2B20FFF748FDFFF728FD6C
:100EE0003B20FFF743FD012010BD0000001800204B
:100EF000001800200A546573742043617365204E06
:100F0000756D283078323030303138303029203D1E
:100F1000203078253032780A0000000010B53120EA
:100F2000094908600948016809A0FFF741FA012052
:100F300010490860104908600A20FFF717FD0021DA
:100F4000481EFFF7DBFC10BD001800200018002031
:100F50000A546573742043617365204E756D2830A3
:100F600078323030303138303029203D203078250B
:100F7000780A0000005001401818002010B53720F2
:100F8000094908600948016809A0FFF711FA002023
:100F9000104908600320800300680F49884201D08F
:100FA000002010BD0120FCE70018002000180020E0
:100FB0000A546573742043617365204E756D283043
:100FC00078323030303138303029203D20307825AB
:100FD000780A000000500140AAAA555510B54220D9
:100FE000124908601248016812A0FFF7E1F90020D9
:100FF000194908600846C06902218843801C1649C7
:10100000C861032080034068401C002803D11348B6
:101010000321890348600320800300680F49884248
:1010200001D0002010BD0120FCE7000000180020C6
:10103000001800200A546573742043617365204EC4
:10104000756D283078323030303138303029203DDD
:1010500020307825780A000000500140AAAA555592
:1010600070B50446114800690821884308300F49CB
:101070000861084600688007800F411C0C48FFF794
:101080007BF805462146FFF761F80A49086101200F
:10109000886006488030006803218903884303493B
:1010A00080310860C8140449486170BD00400140A7
:1010B00000366E01006000400000014000B511489C
:1010C00040680121490208430E49486009E0FFF7E2
:1010D0003DFD0D48C078012803D100200A49C870A1
:1010E00000E0F4E700BFF5200849086005484068C3
:1010F000012149028843034948600548FFF7E8FB9E
:1011000000BD0000000001401C180020081800204D
:101110008813000034110020001800202000000077
:10112000D0030020541100202018002010040000DB
:10113000E0030020000000000000000000000000AC
:10114000000000000000000000000000000000009F
:04115000000000009B
:04000005200000C116
:00000001FF
